:020000040001F9
:10B000005070002005B301000DB301000FB3010023
:10B0100011B3010013B3010015B3010000000000DB
:10B0200000000000000000000000000017B3010055
:10B0300019B30100000000001BB301001DB30100A3
:10B040001FB301001FB30100E9C101001FB30100DC
:10B050001FB301001FB301000DB901001FB30100B0
:10B060001FB301001FB301001FB301001FB3010094
:10B070001FB301001FB301001FB301001FB3010084
:10B080001FB30100A9BC01001FB301001FB30100E1
:10B0900055BD01001FB3010059BD01001FB30100E0
:10B0A0001FB301001FB301001FB301001FB3010054
:10B0B0001FB301001FB301000000000000000000EA
:10B0C0001FB301001FB301001FB301001FB3010034
:10B0D0001FB301001FB301001FB3010000000000F7
:10B0E0000000000000000000000000000000000060
:10B0F0000000000000000000000000000000000050
:10B10000000000000000000000000000000000003F
:10B11000000000000000000000000000000000002F
:10B12000000000000000000000000000000000001F
:10B13000000000000000000000000000000000000F
:10B1400000000000000000000000000000000000FF
:10B1500000000000000000000000000000000000EF
:10B1600000000000000000000000000000000000DF
:10B1700000000000000000000000000000000000CF
:10B1800000000000000000000000000000000000BF
:10B1900000000000000000000000000000000000AF
:10B1A000000000000000000000000000000000009F
:10B1B000000000000000000000000000000000008F
:10B1C000000000000000000000000000000000007F
:10B1D000000000000000000000000000000000006F
:10B1E000000000000000000000000000000000005F
:10B1F000000000000000000000000000000000004F
:10B20000DFF80CD000F02AFB004800477DF6010073
:10B2100050700020401E00BF00BF00BF00BF00BF35
:10B2200000BF00BF00BF00BF00BF00BF00BF00BF26
:10B2300000BF00BF00BF00BF00BF00BF00BF00BF16
:10B2400000BF00BF00BF00BF00BF00BF00BF00BF06
:10B2500000BF00BF00BF00BF00BF00BF00BF00BFF6
:10B2600000BF00BF00BF00BF00BF00BF00BF00BFE6
:10B2700000BF00BF00BF00BF00BF00BF00BF00BFD6
:10B2800000BF00BF00BFC5D170470000401E00BF17
:10B2900000BF00BF00BF00BF00BF00BF00BF00BFB6
:10B2A00000BF00BF00BF00BF00BF00BF00BF00BFA6
:10B2B00000BF00BF00BF00BF00BF00BF00BF00BF96
:10B2C00000BF00BF00BF00BF00BF00BF00BF00BF86
:10B2D00000BF00BF00BF00BF00BF00BF00BF00BF76
:10B2E00000BF00BF00BF00BF00BF00BF00BF00BF66
:10B2F00000BF00BF00BF00BF00BF00BF00BFC5D17F
:10B30000704700000648804706480047FEE7FEE712
:10B31000FEE7FEE7FEE7FEE7FEE7FEE7FEE7FEE705
:10B32000EDBE010001B2010040EA01039B0703D01A
:10B3300009E008C9121F08C0042AFAD203E011F874
:10B34000013B00F8013B521EF9D27047D2B201E036
:10B3500000F8012B491EFBD270470022F6E710B51A
:10B3600013460A4604461946FFF7F0FF204610BD73
:10B3700030B504460020034600E05B1C934203D234
:10B38000E05CCD5C401BF8D030BD2DE9FE4F81EA7A
:10B39000030404F0004421F0004100944FF0000B3E
:10B3A00023F0004350EA01045ED052EA03045BD06C
:10B3B000C3F30A54C1F30A552C44A4F2F3340194A4
:10B3C000A0FB0254C1F3130141F48011C3F3130332
:10B3D00043F4801301FB024400FB034E840A970AE6
:10B3E00044EA815447EA8357A4FB076802958D0A13
:10B3F00005FB07854FEA932C04FB0C542705029D9F
:10B400004FEA065847EA1637B5EB08056EEB070C0E
:10B41000870E920E47EA811742EA8312A7FB0201C8
:10B42000B6EB0B0164EB00042B0D43EA0C335E1802
:10B4300044EB1C50DA465146E7FB0201C5F3130406
:10B440004FEA0B3343EA14534FEA0432019C43EAB8
:10B450000603A4F10C040294009CCDE900B400F0B2
:10B4600069F803B0BDE8F08F00200146F9E70EB59A
:10B4700040F2334102910021CDE900110A460B460A
:10B4800000F058F803B000BD30B50B46014600206F
:10B490002022012409E021FA02F59D4205D303FA96
:10B4A00002F5491B04FA02F52844151EA2F1010217
:10B4B000F1DC30BD2DE9F05F0546002092469B4649
:10B4C00088460646814640241BE0284641464746BA
:10B4D000224600F0E4F953465A46C01A914110D36F
:10B4E00011461846224600F0CBF92D1A67EB0108E9
:10B4F0004F4622460120002100F0C2F917EB000957
:10B500004E41201EA4F10104DFDC484631462A46A4
:10B510004346BDE8F09F10B5141E73F1000408DA2D
:10B52000401C41F1000192185B411A4301D120F007
:10B53000010010BD2DE9F04D92469B4611B1B1FAC4
:10B5400081F202E0B0FA80F22032904600F098F9E1
:10B5500004460F4640EA0A0041EA0B0153465A46A8
:10B56000084313D0114653EA010019D0C8F1400234
:10B57000504600F094F905460E465046594642465C
:10B5800000F07EF9084305D0012004E0204639464A
:10B59000BDE8F08D0020054346EAE0762C433743B2
:10B5A0000A986305E40AA0EB08000022FD0A44EAB9
:10B5B00047540A3002D500200146E9E70105101979
:10B5C0006941DDE9084500196941BDE8F04DA2E790
:10B5D0002DE9FE4F804681EA0300C00F0C46009023
:10B5E00021F0004123F00045B8EB0200A94105D24B
:10B5F0004046214690461C460B46024623F000403A
:10B60000104347D0270DC7F30A00C3F30A51029035
:10B61000401A019040286BDAC3F3130040F4801BFA
:10B620000098924620B10023D2EB030A63EB0B0B88
:10B6300001985946C0F14002504600F021F90646F3
:10B640000D4650465946019A00F039F910EB0800B2
:10B650006141002487EA115284EAE7731A4340D01B
:10B66000009A62B3019A012A4FEA075215DC001BC7
:10B6700061EB02014FF0004202EA0752CDE90042BD
:10B68000001C41F5801132462B46FFF753FF03B0F3
:10B69000BDE8F08F40462146F9E7001B61EB02014F
:10B6A000001C41F5801300185B412018A2F500171B
:10B6B00047EB030140EAD570B6196D4111E06D0802
:10B6C0004FEA360645EAC0754FEA0752001B61EBA8
:10B6D0000201001C41F5801149084FEA30000019B1
:10B6E000514132462B4603B0BDE8F04FFFF713BF80
:10B6F0000098012240000023D0EB020263EBE073CC
:10B70000009821464FEAE074B8EB000061EB0401B9
:10B71000E9E783F000435BE781F0004158E72DE95A
:10B72000F04D81EA030404F0004B21F0004514467B
:10B730004FF0000A23F0004150EA050220D054EAFD
:10B7400001021DD0C5F30A570246C5F31303C1F326
:10B750001300C1F30A5640F4801543F48013A7EB9D
:10B760000608101BD64608F2FD3873EB050002D31D
:10B7700008F1010801E092185B41B8F1000F03DA0B
:10B7800000200146BDE8F08D00204FF480110646F0
:10B7900084460EE0171B73EB050705D3121B63EB02
:10B7A000050306434CEA010C49084FEA30009218A1
:10B7B0005B4150EA0107EDD152EA030012D082EA60
:10B7C000040083EA0501084305D0101BAB4106D2F3
:10B7D0000122002306E000224FF0004302E06FF058
:10B7E000010253101AEB06004CEB085110EB0A0053
:10B7F00041EB0B01BDE8F04DFFF78DBEC1F30A52DE
:10B80000C1F3130140F2FF3341F480119A4202DA8E
:10B8100000200146704740F233439A42A2F233427D
:10B8200002DC524200F03BB800F02AB830B5041EEA
:10B8300071F1000404DB4FF00044404264EB01016D
:10B84000141E73F1000405DB1C464FF00043524206
:10B8500063EB0403994208BF904230BD064C074D8C
:10B8600006E0E06840F0010394E8070098471034D0
:10B87000AC42F6D3FFF7C8FC681602008816020037
:10B88000202A04DB203A00FA02F1002070479140A0
:10B89000C2F1200320FA03F3194390407047202A95
:10B8A00004DB203A21FA02F00021704721FA02F36A
:10B8B000D040C2F120029140084319467047202A27
:10B8C00006DBCB17203A41FA02F043EAE07306E0C8
:10B8D00041FA02F3D040C2F12002914008431946D8
:10B8E000704710B5002801D001F038FB10BD0000F2
:10B8F00010B5002306E000BF10F8014B5B1C02F8F6
:10B90000014BDBB28B42F7D3002010BD2DE9F0478D
:10B910000025DFF8F090A8464FF4807601242F46EA
:10B92000304604F077FB38B1D9F80403204203D045
:10B93000304604F065FB2543361D64007F1CB6B21B
:10B94000082FEDD34FF4BE74204604F063FB38B1EA
:10B95000204604F055FB2C4845F00045D0F8008007
:10B960002A4E15F0FF0F14D0012700242F420CD0CF
:10B9700009EB8401D1F81005D1F81015C0F30420AB
:10B9800056F82420C1F3014190477F00641C082C25
:10B99000ECD3002D32DA0024B14609EB04004E4608
:10B9A00090F95010491C26D090F8507027F0C0052F
:10B9B000284602F0A1FB56F82060E6B1BF0901203D
:10B9C000A840A90001F1A041D1F8001710EA080F22
:10B9D000C1F3014102D0022902D00CE003290AD1AF
:10B9E000032F05D102290BD00221284604F0F9FAD1
:10B9F00039462846B047641C042CCED3BDE8F087F6
:10BA00000321F2E70060004010050050204D0020A7
:10BA10002DE9F0474FF0805108694969394A491EBC
:10BA200048438021FFF764FF374F4FF00009DFF8EC
:10BA3000D4A002254E460AF18008C7F8049000BF42
:10BA40000AEB4614227C022A01D0042A41D1217833
:10BA500008F805106D1CE9B2637808F80130491C3C
:10BA6000C9B2A37808F80130491CC9B2404608F8A9
:10BA70000120491CCDB200216218491CD2784255E0
:10BA80006D1CC9B2EDB20D29F6D32049786841F892
:10BA90002060401C786031461DA000F05DFC1EA0B7
:10BAA00000F05AFC2046032100F036F91DA000F0FA
:10BAB00053FCE11C1DA000F04FFC217C1CA000F0F9
:10BAC0004BFC617C1EA000F047FC4FF4FA7003F0C1
:10BAD00083FF761CF6B2042EB2D3796819B11CA08C
:10BAE00000F03AFC07E01FA000F036FC602188F867
:10BAF000031088F80490AD1E88F802500120BDE8BC
:10BB0000F0870000984700202040002018490020BE
:10BB10000D0A4958202564000D0A43494420093A7A
:10BB2000000000000D554920093A000025730A0065
:10BB30000D53544154452020203A25640D0A00003D
:10BB400044454641554C54203A25640D0A000000F6
:10BB5000416374697665206361726473203A2025BD
:10BB6000640D0A004E6F204163746976652063613D
:10BB70007264730000F01F020121914040098000AF
:10BB800000F1E020C0F88012704700F01F02012190
:10BB900091404009800000F1E020C0F8001170479A
:10BBA00000F01F02012191404009800000F1E020D7
:10BBB000C0F8001270474907090E002806DA00F0A5
:10BBC0000F0000F1E02080F8141D704700F1E02024
:10BBD00080F800147047000070B52F4B2F490322E6
:10BBE0001878087098784880002006E09C5C0D1852
:10BBF000521C401C2C71D2B2C0B24C888442F5D881
:10BC0000274C08780025207002226570A270E5702C
:10BC1000257190266571262808D00DDC052837D0BF
:10BC2000212835D0242821D0252833D100F0E6FA68
:10BC3000A1781B48C91C27E027281AD0E1281BD06F
:10BC4000FD2825D0FE2825D11648154A0321456038
:10BC50000020803A02EB4013401CC0B21974042843
:10BC6000F8D300F053FBE6702571E1E700F09AF895
:10BC7000DEE7FFF7CDFEDBE70879E0704879207159
:10BC80008879607106480521BDE8704000F074B8FD
:10BC9000E670F7E770BD00009843002028490020B7
:10BCA000184800202040002007480021C0F840111B
:10BCB000C0F84411C0F84811C0F84C11C0F8001188
:10BCC000C0F8041105F0ACB9001001401FB5002107
:10BCD0000F236A468DF80F1000F00F010A2901DAD0
:10BCE000303100E037315B1EDBB20009D154F3D1B3
:10BCF0005B1ED8B278211154401EC4B230211155B8
:10BD0000111904A000F028FBC4F10F0004B0C0B268
:10BD100010BD00002573000070B50D4606460024D6
:10BD20000DE024B1200702D108A000F015FB305D22
:10BD3000FFF7CCFF06A000F00FFB641CA4B2AC42DE
:10BD4000EFD302A000F008FB204670BD0D0A0000F2
:10BD50002000000005F0FEB8064810B5406820B18C
:10BD60008047BDE81040FFF7BCBDBDE8104003F0C0
:10BD70001FBB0000FC40002030B40020064A074BE7
:10BD800003E0145C1C54401CC0B28842F9D330BCA0
:10BD9000034804F043BD00001848002098430020E9
:10BDA000684300202DE9F04100223448114600BFCD
:10BDB00000EB41131B7CFF2B05D0032B03D0491C48
:10BDC000C9B20429F4D32D4D803504294DD005F591
:10BDD00088739C18521C267900EB41149818267021
:10BDE00000796070521C9818521C0079A070588815
:10BDF00005280AD900209E182718521C401C3679A5
:10BE0000C0B2FE70D2B20D28F5D39818521C00793A
:10BE10002074D0B218440079607419A000F09CFA24
:10BE200019A000F099FA20460321FFF775FF19A029
:10BE300000F092FAE11C19A000F08EFA217C18A003
:10BE400000F08AFA617C1AA000F086FA00F05EFA2F
:10BE5000002808D00320A8702078E8706078287146
:10BE6000A07868710120BDE8F08115A000F074FA97
:10BE70006020E87000202871F5E700009847002056
:10BE80000D495820256400000D0A43494420093A11
:10BE9000000000000D554920093A000025730A00F2
:10BEA0000D53544154452020203A25640D0A0000CA
:10BEB00044454641554C54203A25640D0A00000083
:10BEC0004D617820436172647320526561636865D7
:10BED000642C20506C656173652064656C657465C5
:10BEE00020616E64206164640A000000F0B5AE4811
:10BEF0000023021D01780125101D4FF080540629F2
:10BF00000BD11678360708D10678C6F30316032E30
:10BF100006D0042E04D0052E02D0062907D00EE04C
:10BF2000B4F82463A14FC6F304263E6002E01678FD
:10BF3000360704D10678C6F30316032E02D006296D
:10BF400004D00FE09B4F9A4E7E670EE016783607BE
:10BF500008D10678C6F30316032E06D0042E04D0AB
:10BF6000052E02D0062907D00EE0D4F84462924F85
:10BF7000C6F342363E6002E01678360704D10678F2
:10BF8000C6F30316032E02D0062906D011E08B4E0D
:10BF9000376827F0807737600EE01678360708D1CB
:10BFA0000678C6F30316032E06D0042E04D0052E01
:10BFB00002D006290AD011E04FF08046C6F80C31B5
:10BFC000C6F810317C4E361F336002E01678360713
:10BFD00004D10678C6F30316032E02D0062905D035
:10BFE0000CE0754F032664373E600AE0167836078A
:10BFF00004D10678C6F30316032E02D006290DD00D
:10C0000014E06F4F05263E606D4E783635606C4EFD
:10C01000083633603F263F1D3E6002E01678360743
:10C0200004D10678C6F30316052E02D0062957D090
:10C0300062E0644E3668644F3E60624E361D36687C
:10C040003F1D3E605F4E083636683F1D3E605D4EC8
:10C050000C3636683F1D3E605A4E103636683F1D1E
:10C060003E60584E143636683F1D3E60554E1836B9
:10C070003668554F20373E60524E1C3636683F1D9D
:10C080003E60504E203636683F1D3E604D4E243691
:10C0900036683F1D3E604B4E283636683F1D3E6079
:10C0A000484E2C3636683F1D3E60464E3036366868
:10C0B000454F40373E60434E343636683F1D3E6044
:10C0C000404E383636683F1D3E603E4E3C36366840
:10C0D0003F1D3E603B4E403636683F1D3E6002E0ED
:10C0E0001678360708D10678C6F30316032E06D055
:10C0F000042E04D0052E02D0062907D019E0D4F86A
:10C100005812324A01F04F01116002E0117809071C
:10C110000FD10078C0F30310032803D0042801D006
:10C12000052806D12A480168C90702D06FF001012D
:10C13000016022487438016841F470010160BFF366
:10C140004F8FBFF36F8F4FF01021D1F800020028FE
:10C1500003DBD1F80402002822DA1E4A15601E48CB
:10C160000468002CFCD01524C1F800420568002D9D
:10C17000FCD0C1F8044201680029FCD013600168BA
:10C180000029FCD0BFF34F8F0C48F0380168134AE8
:10C1900001F4E06111430160BFF34F8F00BFFDE781
:10C1A00010490F480860F0BDE00F00F04035014035
:10C1B0000DF0ADBA00C007403C050040FCED00E0CA
:10C1C000105600400404001020C50040E40E00405A
:10C1D0000004004004E5014000E401400400FA05C9
:10C1E0000090D003484000200348007F08B105F0CC
:10C1F0005FB804F0D9BF0000784D00202DE9F04170
:10C200002B4A0021A2F58875937943B129A000F04B
:10C21000A3F86020E87000202871BDE8F0812A486A
:10C2200014794FF003080470214C647944708370D2
:10C2300053884446052B0ED9002300EB41161719ED
:10C2400006EB030C641C5B1C3F79DBB28CF80370BB
:10C25000E4B20D2BF3D3224400EB41141279227483
:10C260001AA000F079F81BA000F076F80321204610
:10C27000FFF752FD1AA000F06FF8E11C1AA000F0C1
:10C280006BF8217C19A000F067F8617C1BA000F01E
:10C2900063F800F03BF80028BFD085F802802078D2
:10C2A000E87060782871A07868710120B5E7000017
:10C2B00028490020436964206E6F7420666F756E94
:10C2C00064210D0A00000000984700200D49582005
:10C2D000256400000D0A43494420093A000000008B
:10C2E0000D554920093A000025730A000D535441A9
:10C2F00054452020203A25640D0A0000444546415B
:10C30000554C54203A25640D0A0000002DE9F041F7
:10C310004FF0805006694069401E4643304602F0A7
:10C3200051FEDFF830800025002408EB451700BFE0
:10C3300057F82410304602F061FE641CE4B2361D4A
:10C34000082CF5D36D1CEDB2042DEDD30120BDE812
:10C35000F0810000984700200FB4054B10B503A9E9
:10C36000044A029800F0DAF810BC5DF814FB0000F3
:10C370002FF00100F840002002E008C8121F08C199
:10C38000002AFAD170477047002001E001C1121F56
:10C39000002AFBD1704700002DE9FF5F82B0002129
:10C3A000DDE90430020DDDF840B0034318D044F657
:10C3B0001050A2F2FF3242431514119801281FD0E9
:10C3C000A5EB0B00401C5FEA000A4FF000064E4F41
:10C3D000DFF83891B046504615D5CAF1000413E095
:10C3E000119801244AA3012801D16FEA0B01029898
:10C3F000119AC0E90031C0E9024206B0BDE8F09FE1
:10C40000CBF10000DFE704460021404A491842EB27
:10C410000450CDE9001012E0E00707D032463B4659
:10C4200040464946FEF7B1FF8046894632463B46C4
:10C4300010461946FEF7A9FF06460F466410002C69
:10C44000EAD1DDE90401DDE90023BAF1000F06DAE3
:10C45000FEF79BFF42464B46FEF797FF05E0FFF7CE
:10C460005EF942464B46FFF75AF904460E46002253
:10C47000284BFFF7DBF903D84FF0FF30014607E008
:10C480000022254B20463146FFF7A2F8FFF7B6F908
:10C49000102409E0002C0ADB0A220023FFF70AF827
:10C4A000039B30321A55641E50EA0102F2D1641C1B
:10C4B000039AC4F111031444119A012A03D00122F2
:10C4C00008430DD10AE0084304D000204FF0110BBF
:10C4D000119072E7A3EB0B056D1E0DE05B4504DDCB
:10C4E0004FF0000205F1010504E003DA4FF000020D
:10C4F000A5F10105002AECD002981199C0E902319A
:10C50000C0E9004579E70000000014400000F03F5A
:10C51000300000000000F0430000E03F2DE9FF4F35
:10C5200095B09B468946064600250FE2252877D11F
:10C5300000242746F84A0121059400E0044316F838
:10C54000013F203B01FA03F01042F7D130782A284E
:10C5500011D06FF02F033078A0F13002092A16D8DD
:10C56000059A44F0020402EB820203EB42021044FB
:10C57000761C0590EFE759F8042B0592002A03DAA0
:10C58000504244F40054059044F00204761C307884
:10C590002E2816D116F8010F44F004042A280DD0D5
:10C5A0006FF02F023078A0F13003092B09D807EB88
:10C5B000870302EB4303C718761CF3E759F8047BA3
:10C5C000761C30786C280FD006DC4C2817D06828F1
:10C5D0000DD06A2814D104E0742810D07A280FD125
:10C5E0000DE044F400140AE044F4801401E044F443
:10C5F00040147278824202D104F58014761C761CB5
:10C60000307866280BD013DC582877D009DC002856
:10C6100075D04528F6D04628F4D047281AD19DE198
:10C6200018E0632835D0642879D0652812D195E1C7
:10C63000702873D008DC6728F1D069286FD06E2885
:10C640000DD06F2806D1B5E073282CD0752875D091
:10C65000782874D05A46179990476D1C75E1C4F339
:10C660000250022809D003280DD0D9F80010042860
:10C670000DD00D6009F1040967E1D9F80010EA173F
:10C68000C1E90052F6E7D9F800100D80F2E70D700D
:10C69000F0E719F8041B8DF8001000208DF8010058
:10C6A000EA46012003E059F804AB4FF0FF30610780
:10C6B0004FF0000102D40DE008F101018846B942B3
:10C6C0000FDA8045F8DB1AF808100029F4D108E0E9
:10C6D00008F1010188468142FADB1AF808100029A6
:10C6E000F6D105985B46A0EB080721463846179A15
:10C6F00000F094FA284400EB080507E04DE029E13A
:10C700000DE01AF8010B5A4617999047B8F1010845
:10C71000F7D25B4621463846179A13E142E00A22D7
:10C720000092C4F302524FF0000A022A08D059F8CE
:10C7300004CB032A4FEAEC710AD00DE029E02AE08D
:10C7400009F1070121F00702F2E802C1914609E070
:10C750000FFA8CFC4FEAEC71042A03D14FFA8CFCDF
:10C760004FEAEC71002907DA0A460021DCF1000CDF
:10C7700061EB02012D2202E0220504D52B228DF867
:10C780000420012203E0E20701D02022F7E79046CF
:10C7900059E00A2102E010220DE010214FF0000ABA
:10C7A00000910BE010224FF0000A44F00404082727
:10C7B000009203E008224FF0000A0092C4F30252F4
:10C7C000022A05D059F804CB0021032A08D009E039
:10C7D00009F1070121F00702F2E802C1914605E0E4
:10C7E0001FFA8CFC042A01D10CF0FF0C4FF000085A
:10C7F000220728D5702806D0009B83F0100353EA47
:10C800000A0305D00EE040228DF80420012208E042
:10C810005CEA010206D030228DF804208DF8050074
:10C8200002229046009B83F0080353EA0A030AD1D0
:10C830005CEA010201D1620705D530228DF804209F
:10C840004FF001087F1E582804D034A003900EA892
:10C8500002900DE036A0F9E753466046009AFEF7D5
:10C8600029FE84460398825C0298401E0290027062
:10C870005CEA0100F0D1029806A9081A00F1200A2A
:10C88000600702D524F4803400E00127574502DD1B
:10C89000A7EB0A0000E0002000EB0A0100900598D9
:10C8A0004144401A0590E00306D45B462146179A9E
:10C8B000059800F0B3F90544002706E001A85A46A0
:10C8C000C05D179990476D1C7F1C4745F6DBE00360
:10C8D0000CD55B462146179A059800F09FF9054450
:10C8E00004E030205A46179990476D1C0099481E65
:10C8F00000900029F5DC08E0029802995A46007879
:10C90000491C0291179990476D1CBAF10001AAF1D8
:10C91000010AF1DC65E10000092801003031323301
:10C92000343536373839616263646566000000006B
:10C930003031323334353637383941424344454655
:10C940000000000000F058F90544761C30780028FB
:10C950007FF4ECAD19B02846BDE8F08F620700D433
:10C96000062709F1070222F0070CFCE80223E14642
:10C9700003F000485FEA080C02D00FF2702C0DE0C3
:10C980005FEA045C02D50FF2682C07E05FEAC47C22
:10C9900002D00FF2602C01E0AFF2700C4FF0FF38C4
:10C9A00023F00043CDF850C065280CD006DC4528A4
:10C9B00009D046281DD047283DD13DE0662818D033
:10C9C00067287ED138E00021112F01DB112000E023
:10C9D000781CCDE9000106A90EA8FFF7DDFCDDE912
:10C9E0000F010E9A03910021009207F1010A0491B0
:10C9F0004DE04FF000400097CDE9011006A90EA8C8
:10CA0000FFF7CAFCDDE90F0203920E9B1199002289
:10CA1000DDF80CA00093049211B9791C00EB010A17
:10CA2000B7EB0A0004D4C0F1FF3007F1010A04900B
:10CA3000AAEB0700019044E0012F00DA0127002152
:10CA4000112F01DD112000E03846CDE9000106A9D3
:10CA50000EA8FFF7A1FCDDE90F010E9A039100215A
:10CA600004910092BA4621070CD40399514500DA8B
:10CA70008A46BAF1010F05DD009AAAF10101515C65
:10CA8000302908D0B84202DA10F1040F06DA012189
:10CA9000CDE9011015E0AAF10101E9E7002805DC64
:10CAA000049901440491AAEB000102E0411C5145A4
:10CAB00000DD8A460499401A401C01904FF0004066
:10CAC0000290200704D40198504501DBCDF8048082
:10CAD00000208DF84F0002980DF14F07B0F1004F84
:10CAE00025D02B200E9002984FF0020800280CDA77
:10CAF000404202902D200E9007E00A210298FEF796
:10CB0000C3FC3031029007F8011DB8F10001A8F113
:10CB10000108F2DC02980028EFD1791E0E98087007
:10CB2000307800F0200040F0450007F8020D12A810
:10CB3000C01B00F107081498007800B1012000EB39
:10CB40000A01019801EBE07105984144401A401E2A
:10CB50000590E00306D45B462146179A059800F03D
:10CB60005DF805441498007818B15A461799904713
:10CB70006D1CE00324D55B462146179A059800F00A
:10CB80004DF805441CE00498002807DBDDE90301AB
:10CB9000884203DD0098405C179901E01799302026
:10CBA0005A469047049805F10105401C04900198ED
:10CBB000401E019004D12E205A46179990476D1CB3
:10CBC000BAF10001AAF1010ADDDC05E017F8010B5A
:10CBD0005A46179990476D1CB8F10001A8F1010859
:10CBE000F4DC5B462146179A0598ABE62D00000061
:10CBF0002B000000200000002DE9F0410446002534
:10CC00001E461746880404D405E039462020B04764
:10CC10006D1C641EF9D52846BDE8F0812DE9F04170
:10CC2000044600251E469046C80301D5302700E083
:10CC30002027880404D505E041463846B0476D1CDE
:10CC4000641EF9D52846BDE8F0812DE9FC5F00257A
:10CC5000168807461580406B14468946A8464FF053
:10CC60000C0A11234FF0020B98B101784846032EAD
:10CC700048D380F800B02288521C92B2228083549C
:10CC80002288521C92B2228009F802102088401C8F
:10CC900020803A6BDAB12088494600F11205B5428E
:10CCA00030D80B5420881023401C80B220800B54B5
:10CCB0002088401C20800F202388155C401ECD5406
:10CCC000238840B25B1C23800028F5DA454697F89C
:10CCD0002E0030B133462246494602F0D7FB05000C
:10CCE00011D197F82D0030B132462146484600F068
:10CCF000A7FD050007D1B87820B32088C846001DDD
:10CD0000B04202D95046BDE8FC9F684679DF002852
:10CD1000F9D12188032008F8010020881921401C3E
:10CD200080B2208008F800102088401C80B220804B
:10CD300000EB0801BDF8000004F026FB0146208846
:10CD400008442080F878B8B1228897F90310D31CE2
:10CD50004846B342D6D800F802B022880123521CBC
:10CD600092B2228083542288521C92B2228009F807
:10CD700002102088401C20807868B8B1218890F982
:10CD80000020CB1C4846B342BCD800F801B0218833
:10CD90000A23491C89B2218043542188491C89B245
:10CDA000218009F801202088401C2080388950B15A
:10CDB000CDE900464B460622022107F1080004F0A7
:10CDC00059FB05009FD1388A50B1CDE900464B464A
:10CDD0000722032107F1100004F04CFB050092D15B
:10CDE000388B50B1CDE900464B461522142107F18E
:10CDF000180004F03FFB050085D1386A30B1334696
:10CE00002246494601F0E8FA0500DBD1786A30B1E4
:10CE100033462246494602F059FD0500D2D197F823
:10CE20002C0038B1334622464946384603F0D0FE3E
:10CE30000500C7D1387838B13346224649463846CE
:10CE400002F076FD0500BDD128465CE710B5012251
:10CE50000221002000F06AFF08B1072810D1072244
:10CE60000221012000F062FF08B1072808D100214B
:10CE70000A22084600F05AFF08B1072800D1002016
:10CE800010BD0000064800684FF40021044A8143A9
:10CE9000121D1160111D00F4002008607047000091
:10CEA0000405005070B50024064D06E068680121B5
:10CEB00010F8340002F0BAFD641C28788442F5D3DF
:10CEC000002070BDC4400020F8B515460C4606464B
:10CED000052A01D20720F8BD02F08AFE18B902F037
:10CEE0005DFE0028F7D1104900204E600C70C1E9AA
:10CEF00002500E4D08610DE006EBC4006968009118
:10CF000081788DF801100078094A694602F0E0FD49
:10CF10000028E0D1641EE4B2EED2BDE8F840054A34
:10CF20000021024800F088B8C440002060160200CA
:10CF3000E1F2010089E50100BFF34F8F0548016868
:10CF4000054A01F4E06111430160BFF34F8F00BF58
:10CF5000FDE700000CED00E00400FA050EB500212D
:10CF60000091CDE901106A4644F20100FFF7E4FFA9
:10CF7000014B1B6818470000BC4B002010B58268AD
:10CF8000C368934203D001F0B5FF002010BD052017
:10CF900010BD29B112B1531E134203D009207047AE
:10CFA0000E2070470160838000218160C1600846C7
:10CFB000704710B58268C3689A1A83889A4203D86A
:10CFC00001F0A2FF002010BD042010BD38B50C46B2
:10CFD000074BA268097802EB420253F82250054A37
:10CFE000126A0092024604F108002369A84738BD7E
:10CFF00014500020A0400020074910B50A7802EB29
:10D00000820201EB8201091DFFF7E0FFBDE810403D
:10D01000042003F031BE0000B84D0020401A20F07B
:10D020007F401060002070470249096801600020BD
:10D030007047000004150140074B9B6823B12AB1DB
:10D0400020B10068037C1BB108207047072070479F
:10D050004174426100207047D84000202DE9F0471C
:10D060008046994614460F4690074FF0000634D18B
:10D070001C4D8CB303F052FD0320C5F814902870AA
:10D0800004F11800002107EB4703AC6004EBC10278
:10D09000491C167056709770506000EBC30003294E
:10D0A000F4DBEE606E70AE701420FEF763FD0321BA
:10D0B0001420FEF780FD1420FEF767FD0A49C1F831
:10D0C000008003211120FEF776FD0748001F00684D
:10D0D00028610020BDE8F08701E00720FAE7AE6094
:10D0E000FBE70000D8400020081501402DE9F84377
:10D0F000DFF870900D461746D9F80810044651B372
:10D100004CB3052D02D20720BDE8F883606910B347
:10D11000607C012821D0002604F076F9D9F80810A7
:10D12000804601EBC800694604F090F9B8B10121CE
:10D1300000F8041B0C4910C0096880E8E200D9F827
:10D14000081001EBC8009DF8001041701420FEF794
:10D1500027FD0020D8E70820D6E72E46DCE704208C
:10D16000D2E70000D840002004150140F8B5124E67
:10D170000446B168E1B1DCB16069C8B10027277429
:10D1800004F042F90546B068694600EBC50004F0BA
:10D190005DF978B1022101704460B0689DF800101B
:10D1A00000EBC50041701420FEF7FAFC3846F8BDCC
:10D1B0000820F8BD0420F8BDD840002070B5044612
:10D1C000234888B01E460D00426035D0A8882968E3
:10D1D00082B22048FFF7DDFE00282ED1A889A96879
:10D1E00082B21C481030FFF7D4FE002825D120223F
:10D1F00019496846FEF798F8A0680690207900B1B2
:10D2000001208DF814008DF81C60607900B10E20AB
:10D210008DF81500E0780290A078039020780190B6
:10D22000607800900D49684602F0ECFC002804D1BB
:10D230009DF81D0018B104E0072008B070BD02F091
:10D2400071FD03480121801C02F026FDF5E7000076
:10D2500098400020984D002018160200ED100200A2
:10D2600010B50446074801214470401C02F000FE3E
:10D27000112805D12146BDE810400348FFF799BEAB
:10D2800010BD000098400020A84D00202DE9F0417D
:10D290000446006802F09BFE2078174F012606FA2C
:10D2A00000F038600021606802F088FE1348144DD9
:10D2B000007FA069C5F82405607D217D0843C5F87D
:10D2C0006C05D4E90001C5F80C05C5F81415207DDE
:10D2D00001280FD10021A06802F070FEE06802F082
:10D2E00076FE207B86403E60D4E90201C5F8081531
:10D2F000C5F81005BDE8F08108050050784D002004
:10D3000000200040F0B50C4693B01F210726ADF871
:10D310000010ADF80410002750B1C17849070DD5B1
:10D320006A4602A9FFF791FC002808D102AD02E08D
:10D330000025ADF800706CB1E07810B1304613B044
:10D34000F0BD01AA0AA92046FFF77FFC0028F6D10C
:10D350000AAA02E00022ADF80470BDF80400C3B2CE
:10D36000BDF80000C1B2284672DFE8E770B50D468F
:10D3700004991646040040D0F6B341480022427199
:10D38000C0E90331242231463E48FDF7CDFF00F0CD
:10D39000D5F83C493431A1F11000016020318160A1
:10D3A00038215C38FDF7D9FF3648217838380170CC
:10D3B000A1788170E178C17061784170D4E904127C
:10D3C000C0E90412D4E90212C0E90212D4E906123B
:10D3D000C0E90612616AD1B100F1AC0100F1B802F6
:10D3E00041628A60636A1B880B80616A436A89882C
:10D3F00099800021436A07E0FFE70E2070BD666A4E
:10D40000B668765C5654491C9E888E42F7D8A16A4D
:10D41000D9B11C4AAC32A2F10C018A608162A36AC4
:10D420009B888B80A16A836A098819800021836A9E
:10D4300004E0A66AB668765C5654491C9E888E4203
:10D44000F7D894F82C1080F82C10216A49B10C49B7
:10D4500014310162226A52884A80216A026A09886C
:10D460001180616821B10649891D41606168416090
:10D470002946BDE8704003483838FFF743BF000035
:10D4800064400020184C002010B502881D4C102A62
:10D4900018D00021112A1BD0192A18D18079002810
:10D4A00015D16079012820D0022824D0032824D067
:10D4B00004280CD12171E2680846002A07D0BDE893
:10D4C00010401047017D012901D18088208110BDC5
:10D4D0006170808821898842F9D1012006E02169A4
:10D4E0000029F4D0BDE810400847022000F04AF8B7
:10D4F0000028F4D110BD0320F8E703202071042098
:10D50000F4E700006440002010B5022801D0032891
:10D5100010D1094C207800280CD0002020706079B0
:10D5200000F030F8002805D02169002902D0BDE8BC
:10D530001040084710BD0000644000200248002150
:10D540008161818381777047644000200B4810B56A
:10D550000078012810D10A4C607868B9607910B160
:10D5600074DF002809D101206070607900F00AF8AA
:10D5700010B1216901B18847002010BD184C00206E
:10D58000644000202DE9F04F724C87B00026607196
:10D5900006A8069602F01AFF0127082805D00028E1
:10D5A00071D1069810B12770C0E00696FFF7C6FF4C
:10D5B000694D687810B16079012804D0A87848B125
:10D5C0006079022806D1E16819B1E7700820884720
:10D5D00000E0E6706079DFF87C814FF0020A08F124
:10D5E00018084FF0030B012806D1687840B108F104
:10D5F000010002F0A5FE18B16079022802D00AE00D
:10D6000084F805A0A87820B108F1010002F098FE86
:10D6100008B984F805B0287B4FF0040920B9607977
:10D62000032801D184F80590287E20B96079042868
:10D6300001D166712671E16841B16079032801D09A
:10D64000042803D1287808B16078C0B1A6701821E9
:10D650006846FDF782FE8DF8006001968DF808603F
:10D660000396607901280FD0022817D03A4E24364D
:10D67000A6F15C0703281ED004284DD13BE0A7701B
:10D6800007208847E3E752E0ADF81260CDF8048048
:10D690008DF80070ADF8106027713FE0CDF8048080
:10D6A0008DF800702889ADF81200A888ADF8100038
:10D6B00084F804A032E0A88AADF81200288AADF8F8
:10D6C00010002548243003F03CFF18B1287808B139
:10D6D000607810B184F804B01EE01F488DF808A0EF
:10D6E000039687F8039000213838FFF70BFE0028D7
:10D6F0001DD105202BE0A88BADF81000288CADF8CB
:10D7000012001548243003F01CFF18B1287808B126
:10D71000607878B184F80490607918B1684673DF56
:10D72000002804D1E16809B120798847002007B0BA
:10D73000BDE8F08F08488DF808A0039687F803909D
:10D7400000213838FFF7DEFD0028F0D106202071D7
:10D75000E2E7000064400020184C002070B5054648
:10D7600001461C220F48FDF7DFFD0F4C00262670F6
:10D77000286830B1016861604068A060201D7ADFD0
:10D7800002E00948001D7BDF00280AD14FF6FF7038
:10D7900060806670BDE87040044A00210448FFF7CD
:10D7A0004BBC70BD044D002084400020A913020032
:10D7B000F415020070B5204C068800251D49E28949
:10D7C000102E15D01D4B112E1ED0122E2BD0502EE8
:10D7D00019D130F8061F914215D1018B022912D1BF
:10D7E000807E10F0010F13D0BDE8704000F03ABE0B
:10D7F00083884B80D0F81630CB60D0F81A000861CF
:10D800004D70002AF0D070BD4FF6FF7048804D700B
:10D810001868FFF7ABFC0028F5D0A1690029F2D009
:10D82000BDE87040084750F8062FCA60406808619C
:10D83000DAE7000084400020044D0020F4150200C7
:10D840007CB5054608880C460930904201D90C2069
:10D850007CBD684671DF0028FAD121880820685411
:10D8600020881B21401C80B2208029542088401C25
:10D8700080B220802844DDF801100160BDF8051059
:10D8800081802088801D80B220809DF8001001B129
:10D89000012129542088401C208000207CBD0000EC
:10D8A00070B5044600F072FF2046FFF783FF204664
:10D8B00000F02AF920880C4D102802D011280AD136
:10D8C00006E0072000F054FAFEF70BF8A08801E00C
:10D8D0004FF6FF7068802046FFF7D6FD2146BDE871
:10D8E0007040024800F004B8004000206843002067
:10D8F00070B50C4609881D4D064612292FD006DC4E
:10D90000012914D010290BD0112904D115E0502978
:10D910000ED0532918D0BDE8704015A0FEF71CBDED
:10D9200019A0FEF719FDA08830800120287170BD74
:10D930002146BDE8704002F0FDBF1EA0FEF70CFDC1
:10D940004FF6FF70308070BD25A0FEF705FD2878EA
:10D950000028F8D13046BDE8704001F06FBB54F8A4
:10D96000060F68616068A86170BD00000440002077
:10D970005265636569766564206576656E742025F9
:10D9800023780A0D0A0D00005265636569766564A7
:10D99000206576656E7420424C455F4741505F4577
:10D9A00056545F434F4E4E45435445440A0D0A0DAD
:10D9B00000000000526563656976656420657665E0
:10D9C0006E7420424C455F4741505F4556545F445A
:10D9D0004953434F4E4E45435445440A0D0A0D00EA
:10D9E0005265636569766564206576656E7420426C
:10D9F0004C455F47415454535F4556545F48564326
:10DA00000A0D0A0D0000000000B585B00023482271
:10DA10001449082003F078F9FDF763FF6A460121F5
:10DA2000002003F05BF9FDF75CFF0F4803F0C8F836
:10DA3000FDF757FF0220ADF8000001208DF80C0023
:10DA4000684603F041F9FDF74CFF084803F032F94E
:10DA5000FDF747FF064803F06FF9FDF742FF05B0F9
:10DA600000BD000020420020001E0020A1D80100BF
:10DA70002D0F02001CB5044681786A460C4802F05E
:10DA8000B7FC002813D160780A49C0EBC00001EB55
:10DA900080001C231A46694602F066FD05480649C7
:10DAA0004C30807A51F820202146684690471CBDB2
:10DAB0005C400020704B0020D41502007CB5114E54
:10DAC0000C004FF00005306015D06946002000F0D2
:10DAD000B1F8002815D101A9012000F0ABF8002809
:10DAE0000FD19DF8041009B1022003E09DF8001049
:10DAF00001B10B202070706810B9FFF7A7F9054637
:10DB000028467CBD4040002010B51A4C0188606852
:10DB100010290ED011292BD1401E606028D1FFF7AB
:10DB200095F9002824D02168002921D0BDE81040B3
:10DB30000847D0B900210122084600F0F7F808B1E3
:10DB400007280FD107220221012000F0EFF808B1C9
:10DB5000072807D104220221002000F0E7F820B1B5
:10DB6000072802D0216801B188476068401C6060C6
:10DB700010BD00004040002010B5032000F068FAFE
:10DB800008B1062800D1002010BD00002DE9F047A3
:10DB900007460024244802E0641C042C41D250F8BB
:10DBA0002420BA42F8D1042C3BD21F48DFF87C90E5
:10DBB0001F4E0C38A9F1140841B301290FD00229D6
:10DBC0002FD104EB440030444578002D29D0D8F8FB
:10DBD0001010002925D02846BDE8F047084704EB7F
:10DBE0004401755C0E44717861B1D8F804100F4A95
:10DBF00001EB81014900133A8068FFF777FA08B911
:10DC000088F80170B17809F80410DEE78068FFF742
:10DC1000ADFA04EB4401314419F804008D78A842B0
:10DC2000D3D0BDE8F0870000901502003C400020F2
:10DC3000644A002004280CD2074A1268074B13F8E4
:10DC4000203001209840904300D00120087000202F
:10DC500070470020FAE70000100500509015020000
:10DC600010B5044617A0FEF777FB4FF4FA7001F0E9
:10DC7000B3FE241F0D2C24D2DFE804F00B23231065
:10DC80002323072323181A1C1E00BDE8104002F0AE
:10DC9000E3BF11481321408876DF01E0FFF756FC0F
:10DCA00008280ED0BDE81040FDF71BBE0BA004E015
:10DCB0000FA002E013A000E017A0BDE81040FEF79F
:10DCC0004BBB10BD6273705F6576656E745F686193
:10DCD0006E646C65720D0A00004000204275747419
:10DCE0006F6E203120707265737365640D0A0000D9
:10DCF000427574746F6E2032207072657373656440
:10DD00000D0A0000427574746F6E203320707265C6
:10DD1000737365640D0A0000427574746F6E20346D
:10DD200020707265737365640D0A000070B500237E
:10DD3000042810D20D4D00EB4004012A02D1012924
:10DD40000CD00022094E00EB4000304461B10129A3
:10DD500006D0022906D00723184670BD0D30C2B286
:10DD60002A55F9E74270F7E78270F5E7644A002028
:10DD7000044A01460020127AD20702D0084600F079
:10DD800055B870472840002070B50E462149054619
:10DD900000200A61C1E90165A9071BD50024012201
:10DDA00011462046FFF7C2FF641C042C02D2002853
:10DDB000F5D00FE070B9720804211748FFF784F816
:10DDC00040B9FFF76FF828B91348144A00211438F6
:10DDD000FFF732F9E9070AD0114A4FF4F011116048
:10DDE0000F4B00221B1D1A600D4A103211600028D3
:10DDF0000FD109480B4A00211C38FFF71DF90028F4
:10DE000007D1BDE8704004480121074A1838FFF7E0
:10DE100013B970BD28400020A01502008DE001005C
:10DE200008050050E1F4010085CE01002DE9F84F0E
:10DE3000854EDFF810A24FF4E01CF16807462CEA8B
:10DE4000010C0091002071680AF10404251D7F4B2C
:10DE50004FF400324FF4802B01EB810E8146182FD6
:10DE600016D2DFE807F00C17173A4E607083868FE2
:10DE7000868FEAA0A0A0A0A0CAD1D8E1EAEA009AC1
:10DE80004FF4F01191432160C5F8009086F800909E
:10DE9000BDE8F88FC4F800C04846C5F80090DAF82D
:10DEA00000C08CF4F01C5FEA8C3C09D5226028602D
:10DEB000022F02D14FF4E16008E04FF47A6005E0F0
:10DEC0002A602060022F3CD04FF4C8706422B0FB5F
:10DED000F2F04143377000225EE0C4F800C04846CB
:10DEE000C5F80090DAF800C08CF4F01C5FEA8C3CB6
:10DEF00004D5226028604FF44870E7E72A6020606C
:10DF00001FE0C4F800C04846C5F80090DAF800C029
:10DF10008CF4F01C5FEA8C3C02D522602860CCE7D0
:10DF20002A602060D0E7C4F800C04846C5F80090D9
:10DF3000DAF800C08CF4F01C5FEA8C3CDED522607D
:10DF40002860C820C2E7C4F800C04846C5F8009061
:10DF5000DAF800C08CF4F01C5FEA8C3C02D5226039
:10DF6000286001E02A602060377014E0C4F800C027
:10DF70004DE0DAF800002BEA0002226000F4802075
:10DF8000286008E0DAF800002BEA0001216000F4C4
:10DF900080202860714600221868BDE8F84FFFF71E
:10DFA000A5B821602EE098465868FFF7DFF8D7F152
:10DFB000110100D040B1F16801F4F0112160C5F801
:10DFC0000090C6F80C9063E74FF40022F26001293C
:10DFD0000CD9C82011FB00F16420B1FBF0F170688E
:10DFE00000224143D8F80400FFF780F8F16801F4FB
:10DFF000F0112960C4F800904AE74FF4F011216055
:10E00000C5F80090377043E74FF4E01121604946AE
:10E01000C5F8009006E04FF4D01121604946C5F8DC
:10E0200000905A462A60BCE74FF4C011216049466F
:10E03000C5F800904FF4C022F4E74FF4F0112960C6
:10E040004946AEE704050050284000208415020030
:10E0500070B500210C4D012455F82120920002F1E9
:10E06000A042D2F8006704FA01F3034000D0032372
:10E0700026F4403646EA0343C2F80037491C042917
:10E08000EAD3002070BD0000901502000078022144
:10E09000FFF77CBD05494FF0FF32082841F82020EA
:10E0A00002D3084480F8482070470000204D00202B
:10E0B000F0B54FF0FF3512B10023082601E0082328
:10E0C0000C260C4C05E000BF54F823707F1C04D0D4
:10E0D0005B1CB342F8D32846F0BD26185DB286F823
:10E0E000305044F82310002AF5D1E11881F8480097
:10E0F000F1E70000204D00200249084490F930006B
:10E1000070470000204D00202DE9F0413A48017889
:10E1100001EB810100EB8104D4E9030600EB40012F
:10E120003648241D00EB8100B0F808804589476817
:10E1300002F0E5F9B6FBF0F100FB116080B30020BE
:10E1400008FB05776188A288DFF8B48011448D1937
:10E150000022C8F8102040B102F0D1F9618888424D
:10E1600021D0BD4201D1A088E8B1A06803281AD00F
:10E1700002F0C5F9A18844463144B1FBF0F200FB3E
:10E1800012108008C8F80C0002F0B9F9B5FBF0F1E4
:10E1900000FB115078B10020BD4228D068B126E0C4
:10E1A000FFE70120CCE702F0AAF9B6FBF0F103206B
:10E1B000C8F814101CE00120EEE7ADB2BEB202F0C8
:10E1C0009EF9B6FBF0F702F09AF9B5FBF0F0874242
:10E1D00001D1701B09E002F092F9064602F08FF9B6
:10E1E000B5FBF0F100FB1150301A800820610220CD
:10E1F000BDE8F04102F040BDB84D002014500020B1
:10E20000A04000200648017801EB810100EB81006D
:10E210000079042801D000F069B8012002F02CBD7B
:10E22000B84D002006480121016000228807C0F88F
:10E2300004218160D0F804110029FBD07047000050
:10E24000180500400A480B4A017801EB810100EBF8
:10E250008100C18811620079012805D0032801D00E
:10E26000042804D1FFF750BF012002F005BD70471C
:10E27000B84D0020A040002000EB8002054800219E
:10E2800000EB820002220171C180C0E903214161DB
:10E2900001817047B84D00202DE9F041114D069ED7
:10E2A0006C781E2C1BD02F783C441E2C00D31E3CB7
:10E2B00004EB840405EB840420716261D1E9000160
:10E2C000C4E90301E38026816878401C6870064831
:10E2D000007808B9FFF7B6FF0020BDE8F081042000
:10E2E000FBE70000B84D0020A040002010B50E4C08
:10E2F000207800EB800004EB80010020091DFEF770
:10E3000065FE2078FFF7B8FF6078401E60702078C7
:10E31000401CC0B220701E2801D100202070BDE832
:10E320001040002002F0A8BCB84D00202DE9F05F9D
:10E330002648C168F1B3DFF898B00E688146DBF873
:10E3400000400769C078E11B21F07F45ED1CB0B9A2
:10E35000DFF880804FF48030C8F84403C8F8040325
:10E360001120FDF707FC1120FDF70FFC4FF0010A0B
:10E37000C8F800A02F20FCF789FF89F803A0B54258
:10E3800000D23546124BE8193C3320F07F4018602C
:10E39000DBF800105A46091B21F07F41001B20F0DA
:10E3A0007F40C91C81420FD9106818602F20FCF7EC
:10E3B0006DFF00E004E0BDE8F05F1120FDF7F0BB69
:10E3C000BDE8F05F02F0AABBBDE8F09FD840002096
:10E3D00004150140001001402DE9F0411788064660
:10E3E000B81D14460D46984202D90C20BDE8F081B4
:10E3F0003188072206290AD34FF4486C4FF6FF7381
:10E40000614501D9994202D17088062801D210468F
:10E41000ECE7604501D99842F9D1994203D098427E
:10E4200001D08142F3D80520E85520881221401CF4
:10E4300080B2208029542088401C80B2208041195D
:10E44000308802F0A1FF2188084480B22080411961
:10E45000708802F099FF2188084420800020C5E7D9
:10E46000FEF77CBDF8B5134800F0DAFF114D002629
:10E47000114C0C3D30B16169B9B101208DF800003B
:10E48000684611E0287820B1616971B18DF80060AB
:10E49000F6E7687858B1A168084800220068FEF7DE
:10E4A00025FE10B1A16901B188472E70F8BD6168E1
:10E4B000F2E7000090400020044D0020F415020017
:10E4C00070B5094B044608209E7A00250E4208D0FC
:10E4D000A4F57F40FF3802D01889A04202D1002065
:10E4E000156070BD052070BDB04B002000EB4002F0
:10E4F0000748012100EB820081724FF6FF71018114
:10E50000FF21C1720021016081808171704700008C
:10E51000B04B002010B5134C207900071ED4606961
:10E52000401C6061E06808B104200AE000F086FF4A
:10E5300008B1022005E0206960B16068C10704D01D
:10E540000320BDE8104002F0E7BC40F0010060602D
:10E550000020F6E7BDE81040FFF754BEBDE81040CC
:10E5600002F0D0BCA040002006494868020707D44A
:10E57000820702D540F001004860022002F0CCBCC6
:10E5800002F0C0BCA04000202DE9F041002601258A
:10E59000144C22E06068226900EBC607387805FA5F
:10E5A00000F1114217D08A43226101F0EDFA0246D0
:10E5B0003878E36805FA00F1194002FA00F399424D
:10E5C00009D17978012901D0012100E000215140D1
:10E5D0007A6802B19047761CF6B220788642D9D389
:10E5E000BDE8F081C44000202DE9FC410E46044600
:10E5F00081786A46254801F0FBFE002828D1607822
:10E60000234F00EB400007EB8000807A400621D4C6
:10E61000022E1FD0012E1FD01E4DA0781E49C0EB28
:10E62000C00001EB800100231C226846A847A8B166
:10E63000022E0DD02078164900EB40000C3101EB82
:10E6400080001649807A51F820202146684690477C
:10E65000BDE8FC81124DE0E7124DDEE7022EF7D057
:10E66000607800EB400007EB8000817A21F04001E8
:10E670008172074960784039C0EBC00001EB80012E
:10E680001C231A466846A847D4E700005C400020D7
:10E69000B04B00208D0E0200AC4A0020C4150200D1
:10E6A00095070200C50602002DE9F04705250F4F2A
:10E6B0009046894606460024C4EBC40007EB800060
:10E6C00036B1072231461030FCF752FE18B106E091
:10E6D000018B414503D10025C9F8004002E0641CCC
:10E6E000072CE9D32846BDE8F0870000AC4A00209B
:10E6F0007CB5054681B26A46074801F079FE040000
:10E7000008D17421684601F09DFE040002D128461C
:10E7100001F020FE20467CBD5C40002010B5104674
:10E72000FDF7DFF8002010BD1FB58DF80C0001F0DB
:10E73000EBFEFDF7D6F803A800F060FAFDF7D1F87C
:10E740000020CDF805008DF809009DF80500694608
:10E7500020F01E0040F001000C3020F020008DF869
:10E76000050007208DF8060010208DF807000548E9
:10E77000009001208DF80400034800F067FBFDF7CE
:10E78000B0F81FBD1DE70100014000202DE9F04F4A
:10E79000054693B0FA48FF240E9400784FF0000A23
:10E7A000002857D0DFF8DC83D8F80000002851D0CB
:10E7B00001A800F017FAFDF794F8281D05902A200B
:10E7C000ADF818000027FF208DF806008DF80470C2
:10E7D00000972888BB46A8F10C0410280FD0A88801
:10E7E0006A460221FFF76CFE48B9009800EB400131
:10E7F00004EB8101C97A8DF806108DF80500DFF869
:10E8000084932888A9F14C09132309F11C02A2F171
:10E81000E006172875D010DC10281ED011285ED015
:10E8200013286FD0142815D1009800EB400004EB9A
:10E830008000C07AFF287DD09AE0D349182877D08D
:10E840001C2876D0522805D198F80A0051F82010DB
:10E8500001A8884713B0BDE8F08F4FF6FF766A46EF
:10E8600001213046FFF72CFE0028F3D10098022248
:10E8700000EB400104EB81018A7211228DF8102017
:10E880008DF80500A8880881D5F806000860688919
:10E890008880287B8871687DC10708D0B849083115
:10E8A00001EB50000078FF2808D00E9006E03246B9
:10E8B0000EA9A81DFFF7F8FE00280FD100990E98A9
:10E8C00001EB410104EB8101C8728A7A42F008022F
:10E8D0008A728DF8060001A8FFF7CCF86CE1009869
:10E8E00000EB400004EB8001887A20F0020088727F
:10E8F000010708D500060FD5002101A8FFF774FE17
:10E900000AE0B9E043E09DF80600FF2804D001F0DA
:10E9100021FDFF208DF806000099102001EB410138
:10E9200004EB8101887212208DF8100044E101E0AF
:10E93000FAE03FE1EA890EA90020FFF7B5FE78B9B9
:10E9400000990E9801EB410104EB8101C8728A7AAB
:10E9500042F008028A728DF8060001A8FFF78AF8D3
:10E96000009800EB400004EB8000C07AFF2804D040
:10E970000098C0EBC00109EB810A00980023C0EBAE
:10E98000C00006EB8002A888514682DF62E700984B
:10E990008DF8103000EB400104EB81018B7A43F0DD
:10E9A00004038B72CB7AFF2B33D0162100EBC0000F
:10E9B0008DF8101002EB80001A210830FCF7CDFC16
:10E9C000009800EB400004EB8000817A41F04001A8
:10E9D00080F80A100099CDF82CB001EB410204EB4D
:10E9E000820208ABD27ACDF828B0C2EBC20206EBA5
:10E9F0008202CDE90C2BC1EBC10209EB8201CDE90A
:10EA0000081BA88808F1040200217FDF0028BDD17F
:10EA1000D2E00DF1380C48F243020020C0EBC003F5
:10EA200006EB83039B7EFF2B04D0401C0728F5D305
:10EA30001746CFE70A78022A0CD0C0EBC00206EBDB
:10EA40008202FD2393760B6813618B889382897908
:10EA5000917505E0C0EBC00106EB8101FE228A76CC
:10EA60008CF8000000990E9801EB410104EB810144
:10EA70008DF80600C872ADE798F8091021F0010181
:10EA800088F80910DDF800C00CEB4C0304EB8300A0
:10EA9000817A21F00402827214218DF81010A97974
:10EAA00021B1C07AFFF724FEAF7985E0E979490703
:10EAB00039D59DF80610FF297ED042F008028272F7
:10EAC000EA7A920707D5C1EBC10206EB8202957E76
:10EAD00025F001059576C27AFF2A6DD014F823201F
:10EAE000022A0ED0C1EBC10106EB810102680A6166
:10EAF00082888A8280798875887E20F002008876F4
:10EB00000DE0CCEBCC0209EB8200428AC1EBC100E4
:10EB100006EB80000283817E21F0010181760121D4
:10EB200001A8FFF761FD47E0A8790123B3EB101FAF
:10EB30002CD100F00F00012828D1009800EB4003F1
:10EB400004EB83039B7A1B0720D500EBC00002EB8C
:10EB500080001A210830FCF700FC16208DF8100008
:10EB6000009800EB400004EB8000817A41F06001E6
:10EB7000817298F8091041F0020188F8091017E035
:10EB80004C400020BC4B0020E4150200009800EB34
:10EB9000400004EB8000827A42F0800282721520ED
:10EBA0008DF8100098F80A0051F8201001A8884745
:10EBB000002701E08DF810303A4604A901A8FEF7BD
:10EBC000D7F99DF8100012287FF4E0AE009800EB12
:10EBD000400104EB8101897A01293FF4D7AEFFF7A8
:10EBE00085FC37E630B1FF21017041708170C17042
:10EBF0000020704748F20E00704700002DE9FF41E9
:10EC000005003AD02B4800240460447284722046E8
:10EC1000FFF76CFC274824213038FCF79EFB0026C8
:10EC2000DFF89480FF27304601F094FB08F8067067
:10EC3000761C072EF7D37420ADF804000720ADF83A
:10EC400006001E481C4900900831684601F0E0FCAF
:10EC500000280FD1184E0120083E3070287878B176
:10EC6000BDF80400BDF80610484381B206F110005B
:10EC700001F0E8FB04B0BDE8F08148F20E00F9E7CE
:10EC80000F4F00250C48A9B202AA083001F0B0FBD2
:10EC900048B9C5EBC50007EB800000231C2202A980
:10ECA00001F062FC08B13470E4E76D1C072DE9D374
:10ECB000E0E70000BC4B002054400020C5EC010000
:10ECC000AC4A00202DE9F04F80465C488FB01E46CC
:10ECD0000068189F93468A4600286ED0742F6CD81F
:10ECE0006846FFF77FFFFCF7FCFD00248DF800402D
:10ECF0008DF80440CDE905762546A9B20DAA504805
:10ED000001F076FB28B908220DA94046FCF730FB3C
:10ED1000D8B16D1C072DF0D39DF80200FF284CD010
:10ED20004FF020094FF0400C04ADBAF1030F0FD0A3
:10ED3000444A1C27B11AB1FBF7F1012307291AD263
:10ED40000295BBF1000F0BD010E08DF80250E3E705
:10ED5000742F02D08DF804C067E08DF8049064E051
:10ED600037498340103949680B425BD002F012FBEF
:10ED70008DF8049046E031494C39A6EB0108B8FB08
:10ED8000F7F7DFB101F11C02B11A2427B1FBF7F745
:10ED900002F1240147B32C4A8DF804C0964244D0B6
:10EDA000A1F5907252F82020B2423BD10295C97A67
:10EDB000884227D18DF8014024E033E01F488DF8C8
:10EDC00004908DF801400C30CDE90A409DF8020016
:10EDD0000295C0EBC00002EB8000089007A80690E7
:10EDE0001820079105900DE030208DF801408DF836
:10EDF00004008DF80330887A800703D4104624215C
:10EE0000FCF7ABFA9DF80400BAF1020F12D040F003
:10EE1000020000BF8DF804005A4601A96846029519
:10EE2000FEF7A6F80FB0BDE8F08F9DF8040040F0A3
:10EE30000300EFE740F00100ECE70000BC4B0020CE
:10EE40005C400020AC4A0020C0150200174A10B5F3
:10EE500012785AB148F20E0258B151B10B6843B161
:10EE6000134A14683CB148F2040010BD48F208008F
:10EE700010BD104610BD0E4C13602C3CD1F805306F
:10EE800023634B7A84F834300979917223F00501B9
:10EE900041F002011172D17921F0040141F0030126
:10EEA000D17100210170084610BD00004C400020C7
:10EEB000BC4B00200E4910B54A788C780023A24242
:10EEC00012D0521CD2B24A70022A00D14B70084AAA
:10EED0004B78183252F8232002600869104420F061
:10EEE0007F400861012010BD0360002010BD0000BC
:10EEF000D8400020826883881A4003689A5C0A70B0
:10EF00008168491C81607047C26883881A40036821
:10EF10009954C168491CC16070470000002808D09E
:10EF2000112801D0FEF768B80248416841F0080195
:10EF300041607047A040002010B51F4C204621784A
:10EF40004068012910D002292DD0032932D10007B1
:10EF500025D46069401C606100F070FAD8B1207857
:10EF6000BDE8104001F088BE000718D41348A28BFA
:10EF7000017801EB810100EB8100C188891A090445
:10EF8000090CC18003D0BDE8104001F081BFBDE88D
:10EF90001040FFF7ABB9BDE81040FFF733B9BDE84B
:10EFA000104000F089BC0648617850F82100BDE8A7
:10EFB0001040004710BD0000A0400020B84D0020C8
:10EFC0004C160200094A0221116009490B68002B06
:10EFD000FCD0064B1B1D186008680028FCD00020E0
:10EFE000106008680028FCD07047000004E501406C
:10EFF00000E4014028DFFFF791BF0000084B10B587
:10F0000001221A60074A1468002CFCD001601068C5
:10F010000028FCD00020186010680028FCD010BD2B
:10F0200004E5014000E4014029DFFFF777BF10B598
:10F030000446C0B2FEF714F9204610BD2DE9F04198
:10F04000244C0746002521782348012639B18178D0
:10F05000407801EB0020C01C6081257066711D485E
:10F0600062891D490089142A014421D31A481422B7
:10F07000143800F0E7FF384601F018F92089143001
:10F080002081608914380004000C608105D060790B
:10F09000401C60710120BDE8F081258161790FA0DD
:10F0A000FDF75AF96079401C607126700020F2E784
:10F0B0000948143800F0C6FF384601F0F7F86179C6
:10F0C00006A0FDF749F96079401C607165812581D2
:10F0D000EBE70000044000209843002053656E7465
:10F0E000206C617374206672616D652025640D0A61
:10F0F000000000000020704700207047002070478B
:10F100002DE9F0474178DFF8A890054601EBC102F0
:10F1100009EB8200002401EB410109F1240A436854
:10F12000274626460AEB810163B191F80AC05FEADF
:10F130000C6807D55FEA4C6C04D459F8226000F1E2
:10F1400008049FB20889D04633463A462146A9DFD3
:10F1500048F241090B281ED000B14846012E18D1B3
:10F1600068784FF6FF7200EB400008EB80000C213E
:10F170000089A7DF00280CD0A0F54051023915D036
:10F18000082813D0A0F5405104390FD011280DD014
:10F190000020BDE8F0876878012300EB400008EB11
:10F1A00080003A4600892146A9DFD9E74846F0E7C2
:10F1B0008C4B002070B50C46014660780A4D00EB80
:10F1C000C00005EB80003823242201F0CDF900288F
:10F1D00008D1617801EBC10105EB81014A68521C3D
:10F1E00000D14A6070BD00008C4B00202DE9F04139
:10F1F00088B0804603271A20ADF81C0048782A4EB4
:10F2000000EB400006EB80000D4600893B4607AA54
:10F210006946AADF28BB6878A6F1240400EBC00089
:10F2200004EB8000BDF81C2069460830FCF7A0F80C
:10F230000028687807D000EBC00004EB8001496823
:10F2400081B11A4E0FE000EB400106EB8101897A93
:10F25000890724D400EBC00004EB80002421FCF7D4
:10F260007CF81CE0124E44F820706878BDF81C2031
:10F2700000EBC00004EB800069464260687800EB58
:10F28000C00004EB80000830FCF74EF868783823A3
:10F2900000EBC00004EB800124224046B04708B0D8
:10F2A0000020BDE8F0810000B04B0020950702006F
:10F2B000C5060200FFF724BFFFF77CBFFFF796BF2C
:10F2C00010B5064C0020A07001F07CF8A078002852
:10F2D000FAD0FCF781FCA08910BD0000044000209A
:10F2E0002DE9F041124E07460125BD403068FDF77B
:10F2F0003DFF00280DD10F4C2069284207D1384628
:10F3000000F042FC0028E06805D0284304E0A84350
:10F310002061BDE8F081A843E060206928432061B6
:10F32000A1683068BDE8F0410022FDF7DFBE0000B3
:10F3300060160200C440002070B51B4C2079000705
:10F340002DD41A48017801EB810100EB81052E696B
:10F3500001F0D5F8E9882A89761E11443144B1FBC1
:10F36000F0F02169002549B16169814206D1E5606B
:10F37000606840F001006060002008E000F05EF886
:10F3800010B10220E56002E0206920B10320BDE851
:10F39000704001F0C1BDBDE87040FEF733BFBDE86D
:10F3A000704001F0AFBD0000A0400020B84D00202B
:10F3B000F8B51A4C207800282ED0206928B10026F4
:10F3C000E06820B1002526B110E00126F8E701250C
:10F3D000F9E7684652DF052803D020B1FDF7BEFDEE
:10F3E00004E0012602E021690098884785B9608819
:10F3F000ADF800006946A06861DF052803D020B1A0
:10F40000FDF7ACFD04E0012502E0D4E902018847E4
:10F41000002EDED0002DD6D0F8BD0000FC4000202C
:10F42000054940880A88904204D34988884201D817
:10F4300001207047002070478840002070B50E48BA
:10F44000017801EB810100EB8104256901F057F897
:10F45000E18822896D1E11442944B1FBF0F107486F
:10F4600042698A4205D301D1006910B14FF0000012
:10F4700070BD4FF0010070BDB84D0020A0400020CD
:10F48000800701D0002070470120704730B51488F4
:10F49000E51C9D4201D90C2030BD02250D55138875
:10F4A0001C245B1C9BB21380CC5413885B1C9BB246
:10F4B0001380012807D0022807D0032807D004288A
:10F4C00007D0072030BD002004E0012002E0CD5429
:10F4D00001E00320C8541088401C1080002030BD7B
:10F4E0000348017AC90702D00078FEF79FBC704735
:10F4F000284000202DE9F047DFF8ACA0DAF80C0036
:10F500009AF8004080469AF80460DAF80890DAF831
:10F5100010703AE009EBC4052A7833E002EB4201AF
:10F520006B68521C03EBC101AB78D2B2934200D19D
:10F5300000220B78022B02D0032B23D11FE0D1F83D
:10F5400004C00346014603E0614503D00B46C96988
:10F55000C1B1F9E7B1B18B4205D1C06918B9134FF8
:10F560000126BE600027D1F800C0C969D96149B140
:10F570000B6863440B6005E00174C06900E0002182
:10F580000028F9D169789142C8D1641EE4B2C1D291
:10F59000CAE903078AF80460404502D00120BDE8AB
:10F5A000F0870020FBE70000D84000200010014059
:10F5B0002DE9F04705462F48002680460778D0F809
:10F5C0000C904BE0D8F8080000EBC70440E002D0F4
:10F5D0002846ED691EE02078616800EB4002401C7F
:10F5E000C0B201EBC2012070A278904200D1267017
:10F5F0000A784868012A2DD1027C5ABB8A68426089
:10F60000CA6882600A69C2604969816198F8041019
:10F6100001B146604268D8F81030DFF85CC0D11AFA
:10F6200021F07F41614502D28268114406E0991AB7
:10F63000826821F07F418A4202D9511A016000E0BC
:10F6400006604660012186600174C66101F0C8FC55
:10F65000002DBCD1207861788842BCD17F1EFFB2DA
:10F66000B0D2D8F80C10494502D00120BDE8F0878F
:10F670000020FBE7D8400020FFFF7F00A8B0694EC4
:10F6800004AB06F10800012507C883E807006648B7
:10F69000CDE9000565480290280203900323644ADF
:10F6A000694604A8FDF78AFDFCF71BF961A768A469
:10F6B0006FA0FCF751FE3846FCF74EFE2046FCF7E3
:10F6C0004BFE6BA0FCF748FE4FF4FA7000F084F993
:10F6D000FEF7A8FD00236F4A02211846FDF7BEFC85
:10F6E000FCF7FFF86C4A01213046FDF7A5FC6B4A98
:10F6F00040F6CD410320FEF747FBFCF7F2F86946E0
:10F700000020FEF7DBF9FCF7ECF89DF8000002287A
:10F710007DD00024FEF778F92046FFF705F89DF824
:10F7200008005FA120F00F00401C20F0F000103016
:10F730008DF80800072202A87CDFFCF7D2F800242D
:10F7400000945020ADF80000A0200194ADF8020014
:10F75000ADF804404FF4C870ADF8060068467ADF93
:10F76000FCF7BFF8504800F0C5FD382101A8FBF7B1
:10F77000F4FD02208DF8040006208DF807002421F6
:10F780001DA8FBF7EAFD4FF496702190B4208DF888
:10F79000805022907068269038210FA8FBF7DDFD7D
:10F7A00026A800941490ADF84C50404B1DAA0FA908
:10F7B00001A8FDF7DBFDFCF794F81C216846FBF778
:10F7C000CCFD4FF42030CDE900404FF47020029082
:10F7D00003208DF80C003648059036480690ADF8A9
:10F7E0000E408DF810406846FDF7B8FFFCF779F839
:10F7F00000224FF400413068FDF778FC0320FDF74C
:10F80000C1FEFCF76EF8284C4FF6FF7500E007E0EC
:10F8100000F0D8FD2088A842F8D0FFF751FDF5E7A9
:10F82000012477E7501502000040002068420020C4
:10F83000951102000D0A20526164696975732046B2
:10F840005720566572203A20302E30310D0A0000C4
:10F85000204275696C64203A204665622032372068
:10F86000323031382031363A34333A30320D0A00F2
:10F870000D0A232323232323232323232323232387
:10F880002323232323232323232323232323232348
:10F890000D0A0000304100201D10020061DC010053
:10F8A000416E656574746100684300205F0002006A
:10F8B0003D01020061E401000348416821F00801B4
:10F8C0004160007801F0D8B9A040002070B514461E
:10F8D00082880E4605462088111D0144921C9942DB
:10F8E00001D8FE2A01D90C2070BD521C3254208848
:10F8F000FF21401C80B2208031542088401C80B2FF
:10F9000020808119288801F03FFD2188084480B2B9
:10F910002080AA8842B1A96841B13044FBF704FDB8
:10F920002088A98808442080002070BD072070BD71
:10F93000F8B50E46017814460546012901D16878CC
:10F9400030B12088821C9A422DD8012902D006E0CD
:10F950000720F8BD69780144891C994223D8181AF8
:10F96000801E87B2ADF800702188B01C084469463B
:10F970007DDF0028EDD12878022805D1BDF80010E0
:10F98000B94201D809210AE00821012805D1687887
:10F99000B84202D8ADF8000001E0ADF80070BDF843
:10F9A0000000FE2801D90C20F8BD2288401CB0546C
:10F9B0002088401C80B2208031542088401C208048
:10F9C000BDF80010084420800020F8BD00207047DA
:10F9D000002070470020704731B540F2E73404E062
:10F9E000401E00902046FBF715FC00980028F7D138
:10F9F00038BD4907090E002806DA00F00F0202F1AF
:10FA0000E02282F8141D03E000F1E02282F80014E5
:10FA100000F01F02012191404009800000F1E02028
:10FA2000C0F88012C0F80011704700002DE9F047BF
:10FA30008846814600F0AEFC0124224E002848464C
:10FA400018D0FEF759FB304490F84800800903288D
:10FA500002D0012806D007E01B48006804FA09F428
:10FA6000204201D1022100E003214846BDE8F047D1
:10FA700000F0B7BA00F09AFC002820D04846FEF704
:10FA80003BFB0546114F4FF4807007EB850100EBFF
:10FA90008500D1F8102580B242F00102C1F810258E
:10FAA00000F0AEFAB8F1000F09D04846FEF724FB8B
:10FAB00056F82000002802D0AC40C7F80443BDE847
:10FAC000F0870000204D002010050050006000402D
:10FAD0002DE9FC41DFF8A480044608EB0400002770
:10FAE00090F930001346C0170E46401C01D008277D
:10FAF00040E0F27819462046FEF7DAFA0546401C47
:10FB000037D0B07848B1A00000F1A040D0F800177D
:10FB100021F00201C0F8001707E0002173782046A9
:10FB200000910A46019100F027FAF078C0B114481C
:10FB3000317800EB8500D0F81025124B1A40C0F840
:10FB400010254FF4F8524FF4403302EA042203EA3E
:10FB500001410A43D0F810150A43C0F8102509E006
:10FB600008EB0500327810F8481F41EA8211017055
:10FB700000E004273846BDE8FC810000204D00204D
:10FB800000600040FFE0FCFF03490968C14011F03C
:10FB9000010000D0012070471005005070B5124DD3
:10FBA00095F8540008B1082070BD0020411E2A18A5
:10FBB000401CC0B282F830102028F8D30024204620
:10FBC000FEF768FA641CE4B20C2CF8D3032106207B
:10FBD000FFF70FFF05494FF00040C1F80403012073
:10FBE00085F85400002070BD204D002000600040CA
:10FBF000034890F85400002800D00120704700000E
:10FC0000204D00202DE9F0411E4C07460D46E07EB8
:10FC100010B10820BDE8F08107B91B4F787F20772D
:10FC20003846FDF733FB6560386920602800174EC1
:10FC30004FF0000516D0397F207F48B1C6F810512B
:10FC4000C6F82051C6F82451C6F84451104804E0C3
:10FC5000C6F81C51C6F844510E48C6F804030220E9
:10FC6000FFF7C7FE207F08B1082000E00420C6F897
:10FC70000005E5752576A5750120E076A5760020BE
:10FC8000C8E70000784D0020F81502000020004071
:10FC900010030200800002002DE9F0411F4B1C7F81
:10FCA0003CB14FF40052B2EB104F02D01020BDE82F
:10FCB000F081D3F804C00022194D4FF404764FF4BC
:10FCC0000177BCF1000F05D014B1C5F8086301E05D
:10FCD000C5F8087393F817E0BEF1000F10D01A7E34
:10FCE00052B1BCF1000F05D014B1C5F8046301E0B6
:10FCF000C5F804731120DAE718610122197604E0CF
:10FD0000D9750025D8605D761D761CB1BDE8F0413F
:10FD100000F066B8BDE8F04100F014B8784D00205E
:10FD20000020004010B5064C207F002806D1A07EA0
:10FD3000002803D100F038FF0120A07610BD00009C
:10FD4000784D00202DE9F05F234DA87E104301D1AE
:10FD500000F02AFF214C686830B14FF40170C4F8FC
:10FD600004030020BDE8F09F4FF000094FF4A27A91
:10FD7000C4F844914FF4927BA8465946204600F0BF
:10FD800051F905464FF48471204600F04BF90746BF
:10FD90005146204600F046F9064647EA0601294347
:10FDA000EBD055EA060007D100F0D6FE98F8171000
:10FDB00098F819008142E0D888F817900DB1032017
:10FDC000D0E70EB10F20CDE798F81A10012009B145
:10FDD0002060C6E76060C4E7784D00200020004046
:10FDE0002DE9F05F204C00264FF48873C4F81061B1
:10FDF0004FF4A275C4F84461C4F83405C4F838154A
:10FE00008AB1D4F8000240F02000C4F80002DFF804
:10FE10005C80D8F8040048B14FF40470C4F80403BF
:10FE20000020BDE8F09F01202060F0E79A46A94637
:10FE30004FF4927B5146204600F0FFF805464946B4
:10FE4000204600F0FAF807465946204600F0F5F83B
:10FE50003D430543EED088F8176008B10320E0E782
:10FE6000002FDDD00F20DCE700200040784D00207F
:10FE70002DE9F0471E4D2A7F3AB14FF40053B3EB02
:10FE8000104F02D01020BDE8F087AB7D0BB11120E0
:10FE9000F9E7A9750023A860AB822AB3154C0026A8
:10FEA0004FF490729846C4F820314FF4AC73C4F804
:10FEB0005881C4F84405C4F848150120A06068685A
:10FEC00080B9924699465146204600F0B6F807465A
:10FED0004946204600F0B1F80743F4D000B10F26A0
:10FEE00085F816803046CEE7BDE8F04700F004B84C
:10FEF000784D0020002000402DE9F05F1C4F0025C8
:10FF00004FF48E7A2E46C7F81C514FF00108C7F8FF
:10FF1000088001F0C7F8174CB815616879B123E083
:10FF20005F465146484600F07DF810B9A08AB842B5
:10FF3000F7D1A08AB84204D001F0B4F801E08346BA
:10FF4000B946A08AA17D8842EAD3A08A584501D14A
:10FF50000F2508E04F465146384600F063F8002868
:10FF6000F9D0C7F80C80A6752846BDE8F09F0000C0
:10FF700000200040784D002030B541EA4201DDE923
:10FF8000034541EA8301800041EA042100F1A040D9
:10FF900041EA0541C0F8001730BD30B541EA4201E1
:10FFA000DDE9034541EA8301800041EA042100F1D3
:10FFB000A04041EA0541C0F8001730BD1CB5002241
:10FFC0000B46009211460192FFF7E7FF1CBD1CB5DE
:10FFD000002100910B46012201911146FFF7DDFF40
:10FFE0001CBD800000F5E06000F1A040026822F432
:10FFF00040320260026842EA01410160704700003D
:020000040002F8
:10000000034908B50844002101600068009008BD5C
:100010000060004002494058012800D0002070478D
:10002000006000404058002800D001207047D0F800
:100030000403084000D0012070474058002800D039
:100040000120704710B5002306E000BF11F8014BF6
:100050005B1C00F8014B9BB29342F7D310BD10B567
:1000600040B103280AD10220FDF782FEBDE810400E
:10007000FBF737BCBDE8104000F0EEBD10BD00003E
:100080007CB51422ADF800200025154AADF80250C9
:100090000192CA888188134C8A4204D100886A463A
:1000A000A5DF657018E001898A4215D100886A468B
:1000B000A5DF0126E67001980078012803D0022808
:1000C00003D020B107E008A003E00DA001E0E57037
:1000D00011A0FCF741F9667008A0FCF73DF97CBD62
:1000E00084430020044000204E6F74696669636198
:1000F00074696F6E20656E61626C65640D0A000044
:10010000496E6469636174696F6E20656E61626CCB
:1001100065640D0A000000004E6F746966696361D2
:1001200074696F6E2F496E6469636174696F6E20C4
:1001300064697361626C65640D0A000000780028D0
:1001400005D103483B21408876DFFBF7CABB7047E7
:1001500000400020F0B5404B044695B00FCB07ADF2
:10016000022685E80F004CF25610ADF82C000BADBE
:100170008DF82E6007A8A91C63DF384F3861FBF7A4
:10018000B0FB1C216846FBF7E8F8002112919DF8AE
:1001900048209DF8000022F00F02521C22F0F002CD
:1001A00010328DF848209DF8492040F00A0022F0D6
:1001B0000F02521C22F0F00210328DF849209DF8F7
:1001C0004A2040F0100022F00602921C8DF84A20CE
:1001D00012AA05928DF8000013919DF84E0014218B
:1001E00020F00600801C8DF84E009DF84C0020F099
:1001F0000F00401C20F0F00010308DF84C009DF8EE
:100200004D0020F00F00401C20F0F00010308DF861
:100210004D000CA8FBF7A1F813A8CDE90C50142051
:10022000ADF83C000EA0ADF838600068149014A83A
:1002300010906088231D0CAA6946A2DF3861FBF785
:1002400050FBA18807A0FCF787F821890EA0FCF7D6
:1002500083F815B00020F0BD6415020004400020B2
:10026000E0000000436861726163746572697374D1
:1002700069632076616C75652068616E646C653AAF
:10028000202523780D0A000043686172616374655C
:1002900072697374696320434343442068616E64E8
:1002A0006C653A202523780D0A0D0A0008B50188EF
:1002B000A1F57F42FF3A18D01421ADF800100B4988
:1002C00000220A604A608A60CA6083880B8001232A
:1002D0008B708A80C1F808D001F11002CA600088D2
:1002E000A6DF03490861FBF7FCFA08BD7443002050
:1002F0000440002030B5104B044685B00FCB8DE88C
:100300000F004CF25610ADF810000DF112016846C6
:1003100063DF0A4D2861FBF7E4FA4FF6FF70208097
:10032000A21C04A90120A0DF2861FBF7DAFA20460D
:10033000FFF710FF05B030BD741502000440002027
:100340000021425C0AB101207047491C0629F8D3FC
:100350000020704770B50546C0EBC5010C4800266B
:1003600000EB81042046C4F81160A4F81560102148
:10037000FAF7F3FFFF202074A0764FF6FF7020837A
:10038000284601F007F802481C3840F8256070BD87
:10039000AC4A00200449084490F93000082801DBE9
:1003A0000120704700207047204D00200449084478
:1003B00090F93000082801D20120704700207047D2
:1003C000204D002048DFFBF78CBA00000649097970
:1003D000490701D40820704720B1044949780160D9
:1003E000002070470E207047A0400020B84D00202C
:1003F00070B5124B1B795B0701D4082070BDB8B1F2
:10040000B2B10368022B11D20D4C03EB430554F833
:1004100025605EB1466804EB850004894568408923
:1004200001FB046100FB0450884203D8072070BD23
:100430000E2070BDC2E90031002070BDA040002038
:1004400014500020F8B5044623480E4600794007B2
:1004500001D40820F8BD24B32068022831D21F4DF2
:1004600000EB400055F8201059B305EB800042899D
:100470004168008902FB00116068814221D9FEF7C2
:10048000FFFF80B1D4E9000200EB400005EB8000E3
:1004900043680189D51AB5FBF1F701FB175585B9FA
:1004A00003E00E20F8BD1020F8BDB6FBF1F501FB0E
:1004B000156535B92EB140894143901919448842D8
:1004C00001D90720F8BD002002460090334621469E
:1004D0000320FDF7E1FEF8BDA040002014500020ED
:1004E00010B54FF010204469601C04D000F007F8EC
:1004F000B4FBF0F010BD4FF08050406910BD4FF0DC
:100500008050006980B2704770B5144800242546B9
:10051000047044702846FDF7AFFE6D1C1E2DF9D304
:100520000F4D6C80FFF7DCFFC61EFFF7E8FF464368
:100530000C49AE6000206C6100EB4002401C41F8A9
:10054000224001EB8202022814815481F4D32C70E2
:10055000AC610420EC616860002070BDB84D0020E3
:10056000A0400020145000202DE9F8438046264882
:100570001F46164600790C46400702D40820BDE805
:10058000F883ECB1B8F1000F1AD02068022815D218
:100590001E4D00EB400055F8201079B105EB8000AE
:1005A00042894168008902FB00116268914205D9C5
:1005B00026B1B04202D3F119814203D90720DEE708
:1005C0000E20DCE74046FEF75BFFD0B13846FEF771
:1005D00057FFB0B16068FEF753FF90B160683246D4
:1005E000C1194046FAF7A0FE00962068002200EBF1
:1005F0004000434655F8205002212046A8470020DD
:10060000BDE71020BBE70000A040002014500020F0
:100610002DE9F041294D04460E462879400702D4C1
:100620000820BDE8F081ECB1E6B12068D0B1FFF759
:1006300066FF0146A088814212D3102810D3E088BB
:1006400070B1FFF74DFF471EFFF759FF4743E288A0
:10065000A188A86802FB0102974201D3890703D051
:100660000720DEE70E20DCE76988022924D0C6E9EE
:100670000010134A01EB410302EB8301486020683C
:1006800042F82300A0880881E0884881FFF737FFFF
:10069000A188E288401E01FB0204FFF730FF94FBB3
:1006A000F0F4FFF72CFFA96804FB0010A86068882D
:1006B000401C68800020B4E70420B2E7A04000207E
:1006C00014500020F8B504461E481E461546007911
:1006D0000F46400701D40820F8BDDFB1D4B120682F
:1006E000022815D2184900EB400051F820207AB1B9
:1006F00001EB800042894168008902FB00116268B9
:10070000914205D925B1A84202D3A919814203D942
:100710000720F8BD0E20F8BD3846FEF7B1FE78B1CF
:100720003046FEF7ADFE58B16068FEF7A9FE38B15D
:100730002B463A46214601200096FDF7ADFDF8BD57
:100740001020F8BDA040002014500020104902469F
:10075000087800281AD0042818D0022A14D0032AB6
:1007600014D10A7912070FD48A69521C8A61B2F532
:100770007A7F06D0022801D000F07EBA487800F0D7
:10078000CBBB0D20FCF738BCFEF7D6BB7047000092
:10079000A0400020F8B504461E481E4615460079C4
:1007A0000F46400701D40820F8BDDFB1D4B120685E
:1007B000022815D2184900EB400051F820207AB1E8
:1007C00001EB800042894168008902FB00116268E8
:1007D000914205D925B1A84202D3A919814203D972
:1007E0000720F8BD0E20F8BD3846FEF749FE78B167
:1007F0003046FEF745FE58B16068FEF741FE38B15D
:100800002B463A46214604200096FDF745FDF8BDEB
:100810001020F8BDA040002014500020FEB507466F
:1008200001A8FCF701FC1F4E1FA0B578ED1CFBF7DB
:1008300093FD002405E0315D1CA0FBF78DFD641CD9
:10084000A4B2AC42F7D3294619A0FBF785FD204896
:10085000C07818B33846FEF7F1FB0028FAD1684695
:10086000FCF7E2FBDDE90001884203D8C1F5004254
:100870001044009002AAFCF7D1FB0298FAF7F7FDAA
:100880009FED141B53EC112BFAF77FFD41EC100B7D
:1008900012A053EC102BFBF75FFDFEBD1AA0FBF777
:1008A0005BFDFEBD984300200D0A00002578200066
:1008B00053656E64696E672066726F6D206465763D
:1008C0006963652C206C656E202523780D0A000075
:1008D0000440002085EB51B81E853E4054696D658B
:1008E00020696E206D6963726F7365637320666F34
:1008F00072207061636B65742073656E6420252EB1
:1009000032660D0A000000004E6F7469666963610B
:1009100074696F6E2F496E6469636174696F6E20CC
:100920006E6F742079657420656E61626C65640D0C
:100930000A000000FEB505460C4601A8FCF774FB52
:1009400021462846FFF79CFB3B4C002501262078DA
:10095000C0B16178394829B10221618102784178BA
:1009600037A009E042788178032303EB0222114487
:100970008AB2628101783BA0FBF7EEFC6089A0811E
:10098000257066712D4F60891437142820D3E088B4
:10099000142238442949FFF755FB608914380004B4
:1009A000000C608106D06079401C6071E0881430D2
:1009B000E08022E0E5802670617930A0FBF7CCFC76
:1009C0006079401C6071A18933A0FBF7C5FC14E07D
:1009D00061792AA0FBF7C0FC60791849401C60715E
:1009E000E08862893844FFF72DFBA18933A0FBF72B
:1009F000B3FC6581E5802670A6706846FCF714FBA1
:100A0000DDE90001884203D8C1F50042104400909E
:100A100002AAFCF703FB0298FAF729FD9FED301BB1
:100A200053EC112BFAF7B1FC41EC100B2EA053EC58
:100A3000102BFBF791FCFEBD0440002084430020F6
:100A400052656365697665642043434344206D6560
:100A500073736167652030782530327825303278BD
:100A60000D0A00005461672025237820506B742004
:100A70006C656E202523780D0A00000052656365C1
:100A800069766564206C617374206672616D65209F
:100A900025640D0A0000000044617461206F662027
:100AA0006C656E67746820256420627974657320B4
:100AB00072656365697665640D0A0000446174615E
:100AC000206F66206C656E677468202564206279EB
